:1000000045C0000060C000005EC000005CC0000091
:100010005AC0000058C0000056C0000054C0000084
:1000200052C0000050C000004EC000004CC0000094
:100030004AC0000048C0000046C0000044C00000A4
:1000400042C0000040C000003EC000003CC00000B4
:100050003AC0000038C0000036C0000034C00000C4
:1000600032C0000031C000002EC000002CC00000D3
:100070002AC0000028C0000026C0000024C00000E4
:1000800022C0000020C000001EC0000011241FBEBE
:10009000CFEFD0E1DEBFCDBF11E0A0E0B1E0E6EDF3
:1000A000F1E000E00BBF02C007900D92A031B10754
:1000B000D9F721E0A0E1B1E001C01D92A431B2075F
:1000C000E1F749D086C09CCF1F920F920FB60F92D6
:1000D00011242F933F936F937F938F939F93AF93AD
:1000E000BF93F8948091100181110FC085E0809337
:1000F0008A0010928900109288001092810010925C
:10010000800081E08093100118C085E480938A000C
:100110002091800030918100A3E8BDE24BD0880F90
:10012000892F881F990B9195909313018093120149
:1001300081E080931101109210017894BF91AF91EA
:100140009F918F917F916F913F912F910F900FBE53
:100150000F901F9018958FEF8ABB12B810928B00EA
:1001600085E480938A0080E280937D00ECE7F0E0F4
:100170008081806280837894809100018BBB809124
:1001800011018823E1F380911201909113014097AE
:1001900030F08FE090E09093130180931201E09192
:1001A0001201F0911301E050FF4F80818BBB109240
:1001B0001101E5CFA29FB001B39FC001A39F700DB5
:1001C000811D1124911DB29F700D811D1124911D5F
:0601D0000895F894FFCF32
:1001D600FC60DAF266B6BEE4FEF6EE3E9C7A9E8ED1
:00000001FF
