:1000000045C0000060C000005EC000005CC0000091
:100010005AC0000058C0000056C0000054C0000084
:1000200052C0000050C000004EC000004CC0000094
:100030004AC0000048C0000068C0000044C0000082
:1000400043C0000040C000003EC000003CC00000B3
:100050003AC0000038C0000036C0000034C00000C4
:1000600032C0000030C000002EC000002CC00000D4
:100070002AC0000028C0000026C0000024C00000E4
:1000800022C0000020C000001EC0000011241FBEBE
:10009000CFEFD0E1DEBFCDBF11E0A0E0B1E0E6EBF5
:1000A000F1E000E00BBF02C007900D92AA30B1074B
:1000B000D9F721E0AAE0B1E001C01D92AC30B2074F
:1000C000E1F760D076C09CCF1F920F920FB60F92CF
:1000D00011248F939F93F89484EB82BF80910B013E
:1000E0008F5F80930B01883C41F49091080181E07F
:1000F00089278093080110920B0178949F918F912A
:100100000F900FBE0F901F9018951F920F920FB671
:100110000F9211240BB60F928F939F93EF93FF933F
:10012000F89488E79FEF9DBD8CBDE0910A01F0E057
:10013000E050FF4F808182BB80910801813059F4EB
:1001400080910A0191E0980F90930A01873071F431
:1001500010920A010BC080910A019FEF980F9093B3
:100160000A01811103C087E080930A017894FF910E
:10017000EF919F918F910F900BBE0F900FBE0F903C
:100180001F90189580E287BB88B38F7D88BB80EF76
:1001900081BB87E083BF84EB82BF1FBC84E08EBD40
:1001A00088E79FEF9DBD8CBD85E087BF86BF7894B3
:0601B000FFCFF894FFCF21
:0A01B6009080C0406020301001006E
:00000001FF
