S00C00004750494F2E73726563E9
S113000045C0000060C000005EC000005CC000008D
S11300105AC000006DC0000056C0000055C000006A
S113002052C0000050C000004EC000004CC0000090
S11300304AC0000048C0000046C0000044C00000A0
S113004042C0000040C000003EC000003CC00000B0
S11300503AC0000038C0000036C0000034C00000C0
S113006032C0000030C000002EC000002CC00000D0
S11300702AC0000028C0000026C0000024C00000E0
S113008022C0000020C000001EC0000011241FBEBA
S1130090CFEFD0E1DEBFCDBF11E0A0E0B1E0EAE8F0
S11300A0F1E000E00BBF02C007900D92A231B1074E
S11300B0D9F721E0A2E1B1E001C01D92A431B20759
S11300C0E1F72ED060C09CCF1F920F920FB60F9213
S11300D011248F939F9381E090E09093010180938A
S11300E000019F918F910F900FBE0F901F90189554
S11300F01F920F920FB60F9211248F939F9382E059
S113010090E09093010180930001109213011092EA
S113011012019F918F910F900FBE0F901F90189511
S113012012B88FEF8ABB80E589BF83E18ABF7894D8
S1130130E0911201F0911301EE5FFE4F80818BBBC1
S11301402FE687E59BE0215080409040E1F700C016
S113015000008091000190910101019749F4809180
S1130160120190911301019690931301809312014F
S113017080911201909113010A97D4F21092130105
S10D018010921201D5CFF894FFCFBE
S113018A0100FC60DAF266B6BEE4FEF6EE3E9C7A44
S105019A9E8E33
S9030000FC
