S01400004D696E695F50726F6A6563742E737265634D
S113000045C0000058C0000056C0000054C00000A5
S113001052C000006AC1000083C100004CC000004F
S11300204AC0000048C0000046C0000044C00000B0
S113003042C0000040C000003EC000003CC00000C0
S11300403AC0000038C0000036C0000034C00000D0
S113005032C0000030C000002EC000002CC00000E0
S11300602AC0000028C0000026C0000024C00000F0
S113007022C0000020C000001EC000001CC0000000
S11300801AC0000018C0000016C0000011241FBED2
S1130090CFEFD0E1DEBFCDBF11E0A0E0B1E0E4EAF4
S11300A0F9E000E00BBF02C007900D92AA3AB10735
S11300B0D9F7C8D375C4A4CF88EF8ABB87E08BBBBC
S11300C0089588E08BBB89EF90E00197F1F700C0B9
S11300D0000089B38770813009F462C089B38770E6
S11300E0823009F45FC089B38770843009F45CC03E
S11300F083EC99E00197F1F700C0000080E18BBB2D
S113010089EF90E00197F1F700C0000089B3877090
S1130110813009F44BC089B38770823009F448C038
S113012089B38770843009F445C083EC99E0019762
S1130130F1F700C0000080E28BBB89EF90E00197EB
S1130140F1F700C0000089B387708130A9F189B349
S11301508770823099F189B38770843089F183EC98
S113016099E00197F1F700C0000080E48BBB89EFB0
S113017090E00197F1F700C0000089B387708130E7
S113018009F189B387708230F9F089B387708430BC
S1130190E9F083EC99E00197F1F700C000000895BD
S11301A081E3089582E3089583E3089584E3089541
S11301B085E3089586E3089587E3089588E3089521
S11301C089E308958AE2089580E3089583E2089517
S11301D0E5E6F0E090819160908390819D7F90832B
S11301E090819460908390E19A95F1F700C085BB6B
S11301F080E18A95F1F700C080818B7F8083089528
S1130200E5E6F0E090819E7F908390819D7F9083CE
S113021090819460908390E19A95F1F700C085BB3A
S113022080E18A95F1F700C080818B7F80830895F7
S1130230CFDF89EF90E00197F1F700C00000089547
S1130240CF93DF93EC0102C02196F2DF8881811104
S1130250FBCFDF91CF91089590E4899F600D112425
S1130260862F8068CDDF81EE94E00197F1F700C01E
S11302700000089581E0C4DF83EC99E00197F1F771
S113028000C00000089588E3BBDF83EF91E001978D
S1130290F1F700C0000088E3B3DF83EF91E001973A
S11302A0F1F700C0000088E3ABDF83EF91E0019732
S11302B0F1F700C000008CE0A3DF83EF91E0019729
S11302C0F1F700C0000086E09BDF83EF91E0019727
S11302D0F1F700C00000CECF0895CCDF60E080E0ED
S11302E0BBDF8FE091E0ACCF08951F920F920FB661
S11302F00F9211248F939F93F89480910001909111
S113030001019195819591099093010180930001D8
S113031078949F918F910F900FBE0F901F90189516
S11303201F920F920FB60F9211248F939F93F894FC
S113033085E090E0909301018093000178949F916F
S11303408F910F900FBE0F901F901895CF93DF934E
S1130350EC0121C0FE01EE0FFF1FE95FFE4F20817B
S1130360318140E050E060E070E886E190E0DAD26C
S11303703093810020938000EBE8F0E080E48083F8
S11303802FEF8FE794E0215080409040E1F700C0C8
S1130390000010822196C530D105E4F2DF91CF919F
S11303A0089507C080910001909101011816190663
S11303B03CF05F9BF7CF8CB19BB190689BB90895DB
S11303C082E508950F931F93CF93DF9300D000D05D
S11303D01F92CDB7DEB71A821982FE01339683E0ED
S11303E0DF011D928A95E9F700E010E056C0809184
S11303F00001909101018F3FBFEF9B0709F452C0A8
S1130400059709F452C05DDE882309F446C059DE1D
S1130410E1E0F0E0EC0FFD1FE00FF11F808390EDB1
S1130420980F9A3038F4602F81E016DF89E191E06B
S113043007DF28C0833229F450DF19820FEF1FEF42
S113044021C08A32F9F411C0FC01EE5FFE4F5081E5
S1130450E1E0F0E0EC0FFD1FE80FF91F40815417B5
S113046011F021E030E0019604C080E090E020E04B
S113047030E08430910544F321303105C9F481E042
S113048090E018C00F5F1F4F2FEF8FE794E02150CB
S113049080409040E1F700C00000063011050CF4E4
S11304A0A6CF08C083E090E005C083E090E002C0DE
S11304B082E090E00F900F900F900F900F90DF91DB
S11304C0CF911F910F910895D5DE60E080E0C4DEE6
S11304D08FE091E0B5DE76DF81309105A1F460E034
S11304E081E0BADE8BE191E0ABDE83E090E02EDFC9
S11304F02FEF8FE796E1215080409040E1F700C054
S11305000000EBDEE8CF82309105A9F460E081E0E1
S1130510A3DE88E291E094DE80E090E017DFBFD1B3
S11305202FEF8FE796E1215080409040E1F700C023
S11305300000D3DED0CF039771F608950F931F9375
S1130540CF93DF9300D000D01F92CDB7DEB792DEF9
S113055060E080E081DE8DE291E072DE00E010E098
S11305605FC01FDFE1E0F0E0EC0FFD1FE00FF11FC3
S11305708083823509F458C090ED980F9A3028F49E
S11305808AE2C0D10F5F1F4F4BC08D3239F48DE02A
S1130590B9D18AE0B7D100E010E042C08A3209F054
S11305A03FC011C0FC01EE5FFE4F3081E1E0F0E09E
S11305B0EC0FFD1FE80FF91F2081321711F041E005
S11305C050E0019604C080E090E040E050E08430C8
S11305D0910544F34130510581F48BE391E096D1C8
S11305E083E090E0B3DE2FEF8FE796E12150804067
S11305F09040E1F700C0000010C08BE491E086D188
S113060080E090E0A3DE4BD12FEF8FE796E12150FD
S113061080409040E1F700C00000198200E010E043
S1130620063011050CF49DCF0F900F900F900F9092
S11306300F90DF91CF911F910F910895EF92FF9248
S11306401F93CF93DF9300D000D01F92CDB7DEB7B6
S113065011DE60E080E000DE84E591E0F1DD1092DF
S1130660010110920001AEDE81309105A1F460E039
S113067081E0F2DD8BE191E0E3DD83E090E066DE92
S11306802FEF8FE796E1215080409040E1F700C0C2
S1130690000023DEC6C08230910509F0B6C01A827C
S11306A01982FE01339683E0DF011D928A95E9F7F2
S11306B0E1DD60E080E0D0DD83E691E0C1DDBFEF05
S11306C02FE784E0B15020408040E1F700C00000F3
S11306D0E12CF12C94C0F5DC182F882309F48FC089
S11306E0E1E0F0E0EC0FFD1FEE0DFF1D808380EDD7
S11306F0810F8A3058F56E2D81E0AEDD812F98DDB3
S113070095E0E916F1040CF46EC0B4DD60E080E01D
S1130710A3DD83E791E094DD60E081E09DDD83E883
S113072091E08EDDAFEFBFE726E1A150B04020405D
S1130730E1F700C000009EDD60E080E08DDD83E62F
S113074091E07EDDEE24EA94FE2C4DC01A3291F540
S11307500DC0E1E0F0E0EC0FFD1FE80FF91F208170
S1130760FC01EE5FFE4F2083019602C080E090E022
S11307708430910574F381E090E0909301018093BB
S113078000018FEF9FE7A4E081509040A040E1F783
S113079000C0000060E081E05FDD8CE891E050DDA6
S11307A0BFEF2FE786E1B15020408040E1F700C061
S11307B000003DC01332B9F45DDD60E080E04CDD43
S11307C08DE991E03DDD81E090E09093010180931B
S11307D000019FEFAFE7B6E19150A040B040E1F7D0
S11307E000C0000024C02FEFE21AF20A8FEF9FE747
S11307F0A4E081509040A040E1F700C00000B6E0C2
S1130800EB16F1040CF467CF0CC0039751F482E0AB
S113081090E09CDD81E090E09093010180930001E1
S113082006C081E090E090930101809300010F9055
S11308300F900F900F900F90DF91CF911F91FF9029
S1130840EF90089539DC88E082B910928B0089E139
S113085080938A0010928C00109289001092880074
S113086080E389BF8FE08ABF42D08FEF81BB84BB16
S11308708093640008DD78948091000190910101D7
S11308808130910511F420DEF7CF8F3F2FEF9207CF
S113089011F454DEF1CF059779F7D0DEEDCF80E087
S11308A090E021C020E322BBEFEFFFE83197F1F79E
S11308B000C0000020E922BBEFEFFFE83197F1F719
S11308C000C0000020EC22BBEFEFFFE83197F1F706
S11308D000C0000020E622BBEFEFFFE83197F1F7FC
S11308E000C00000019684319105E4F2089588E186
S11308F08AB91BB886E0809395001092900083E03B
S113090089B908955D9BFECF8CB90895CF93DF9389
S1130910EC0102C0F7DF219688818111FBCFDF91C2
S1130920CF910895052E97FB16F400940FD057FD30
S113093005D014D007FC02D046F408C05095409569
S1130940309521953F4F4F4F5F4F08959095809577
S1130950709561957F4F8F4F9F4F0895A1E21A2E96
S1130960AA1BBB1BFD010DC0AA1FBB1FEE1FFF1F4F
S1130970A217B307E407F50720F0A21BB30BE40B9F
S1130980F50B661F771F881F991F1A9469F76095E6
S11309907095809590959B01AC01BD01CF010895A0
S10709A0F894FFCFF5
S11309A4010030303030000B0293020F0316045060
S11309B4415353574F52443F002A004572726F7299
S11309C4206E756D626572004F50454E0054455259
S11309D44D494E414C204D4F4445004572726F724F
S11309E4204E756D626572210D0A004F50454E21EB
S11309F4210D0A004964656E7469666963617469EA
S1130A046F6E004368616E67652050617373776F1E
S1130A147264004D415820776F7264203A20342068
S1130A2421210052652D456E746572004368616E20
S1130A34676520436F6D706C657465210043616E56
S10D0A4463656C20496E7075740040
S9030000FC
