S00C000054696D652E7372656389
S113000045C0000060C000005EC000005CC000008D
S11300105AC0000058C0000056C0000054C0000080
S113002052C0000050C000004EC000004CC0000090
S11300304AC0000048C0000046C0000045C000009F
S113004042C0000040C000003EC000003CC00000B0
S11300503AC0000038C0000036C0000034C00000C0
S113006032C0000030C000002EC000002CC00000D0
S11300702AC0000028C0000026C0000024C00000E0
S113008022C0000020C000001EC0000011241FBEBA
S1130090CFEFD0E1DEBFCDBF11E0A0E0B1E0EEE3F1
S11300A0F1E000E00BBF02C007900D92A031B10750
S11300B0D9F721E0A0E1B1E001C01D92A231B2075D
S11300C0E1F727D03AC09CCF1F920F920FB60F9240
S11300D011248F93F89481B7885B81BF80911001BC
S11300E08F5F80931001843671F4809111018930FF
S11300F018F01092110105C0809111018F5F809357
S11301001101109210018F910F900FBE0F901F904C
S113011018958FEF8ABB87E083BF88E481BF82E0B4
S113012087BF86B7826086BF7894E0911101F0E0C2
S1110130E050FF4F80818BBBF8CFF894FFCFD7
S113013EFC60DAF266B6BEE4FEF6EE3E9C7A9E8E65
S9030000FC
